{
  "_format": "hh-sol-artifact-1",
  "contractName": "User",
  "sourceName": "contracts/User.sol",
  "abi": [
    {
      "inputs": [
        {
          "internalType": "address payable",
          "name": "_schoolContract",
          "type": "address"
        },
        {
          "internalType": "string",
          "name": "_name",
          "type": "string"
        },
        {
          "internalType": "bool",
          "name": "_community",
          "type": "bool"
        },
        {
          "internalType": "address payable",
          "name": "_owner",
          "type": "address"
        }
      ],
      "stateMutability": "nonpayable",
      "type": "constructor"
    },
    {
      "anonymous": false,
      "inputs": [
        {
          "indexed": false,
          "internalType": "string",
          "name": "",
          "type": "string"
        }
      ],
      "name": "InsufficientBalance",
      "type": "event"
    },
    {
      "anonymous": false,
      "inputs": [
        {
          "indexed": false,
          "internalType": "address",
          "name": "",
          "type": "address"
        },
        {
          "indexed": false,
          "internalType": "address",
          "name": "",
          "type": "address"
        },
        {
          "indexed": false,
          "internalType": "uint256",
          "name": "",
          "type": "uint256"
        }
      ],
      "name": "SendToSchool",
      "type": "event"
    },
    {
      "stateMutability": "payable",
      "type": "fallback"
    },
    {
      "inputs": [
        {
          "internalType": "address",
          "name": "_tokenAddress",
          "type": "address"
        },
        {
          "internalType": "address",
          "name": "_cTokenAddress",
          "type": "address"
        },
        {
          "internalType": "uint256",
          "name": "borrowAmount",
          "type": "uint256"
        }
      ],
      "name": "borrow",
      "outputs": [
        {
          "internalType": "uint256",
          "name": "",
          "type": "uint256"
        }
      ],
      "stateMutability": "nonpayable",
      "type": "function"
    },
    {
      "inputs": [],
      "name": "community",
      "outputs": [
        {
          "internalType": "bool",
          "name": "",
          "type": "bool"
        }
      ],
      "stateMutability": "view",
      "type": "function"
    },
    {
      "inputs": [
        {
          "internalType": "address",
          "name": "_erc20Contract",
          "type": "address"
        },
        {
          "internalType": "address",
          "name": "_cErc20Contract",
          "type": "address"
        },
        {
          "internalType": "uint256",
          "name": "_numTokensToSupply",
          "type": "uint256"
        }
      ],
      "name": "deposit",
      "outputs": [
        {
          "internalType": "uint256",
          "name": "",
          "type": "uint256"
        }
      ],
      "stateMutability": "nonpayable",
      "type": "function"
    },
    {
      "inputs": [
        {
          "internalType": "address",
          "name": "comptroller",
          "type": "address"
        },
        {
          "internalType": "address[]",
          "name": "cTokens",
          "type": "address[]"
        }
      ],
      "name": "enterMarkets",
      "outputs": [
        {
          "internalType": "uint256[]",
          "name": "",
          "type": "uint256[]"
        }
      ],
      "stateMutability": "nonpayable",
      "type": "function"
    },
    {
      "inputs": [
        {
          "internalType": "address",
          "name": "comptroller",
          "type": "address"
        },
        {
          "internalType": "address",
          "name": "cToken",
          "type": "address"
        }
      ],
      "name": "exitMarket",
      "outputs": [
        {
          "internalType": "uint256",
          "name": "",
          "type": "uint256"
        }
      ],
      "stateMutability": "nonpayable",
      "type": "function"
    },
    {
      "inputs": [
        {
          "internalType": "address",
          "name": "_erc20Contract",
          "type": "address"
        }
      ],
      "name": "getBalance",
      "outputs": [
        {
          "internalType": "uint256",
          "name": "",
          "type": "uint256"
        }
      ],
      "stateMutability": "view",
      "type": "function"
    },
    {
      "inputs": [],
      "name": "name",
      "outputs": [
        {
          "internalType": "string",
          "name": "",
          "type": "string"
        }
      ],
      "stateMutability": "view",
      "type": "function"
    },
    {
      "inputs": [],
      "name": "owner",
      "outputs": [
        {
          "internalType": "address",
          "name": "",
          "type": "address"
        }
      ],
      "stateMutability": "view",
      "type": "function"
    },
    {
      "inputs": [
        {
          "internalType": "address",
          "name": "_tokenAddress",
          "type": "address"
        },
        {
          "internalType": "address",
          "name": "_cTokenAddress",
          "type": "address"
        },
        {
          "internalType": "uint256",
          "name": "repayAmount",
          "type": "uint256"
        }
      ],
      "name": "repayBorrow",
      "outputs": [
        {
          "internalType": "uint256",
          "name": "",
          "type": "uint256"
        }
      ],
      "stateMutability": "nonpayable",
      "type": "function"
    },
    {
      "inputs": [],
      "name": "schoolContract",
      "outputs": [
        {
          "internalType": "address payable",
          "name": "",
          "type": "address"
        }
      ],
      "stateMutability": "view",
      "type": "function"
    },
    {
      "inputs": [
        {
          "internalType": "address",
          "name": "",
          "type": "address"
        }
      ],
      "name": "schoolContributions",
      "outputs": [
        {
          "internalType": "uint256",
          "name": "",
          "type": "uint256"
        }
      ],
      "stateMutability": "view",
      "type": "function"
    },
    {
      "inputs": [
        {
          "internalType": "address",
          "name": "",
          "type": "address"
        }
      ],
      "name": "underlyingAmountDeposited",
      "outputs": [
        {
          "internalType": "uint256",
          "name": "",
          "type": "uint256"
        }
      ],
      "stateMutability": "view",
      "type": "function"
    },
    {
      "inputs": [
        {
          "internalType": "uint256",
          "name": "amount",
          "type": "uint256"
        },
        {
          "internalType": "address",
          "name": "_erc20Contract",
          "type": "address"
        },
        {
          "internalType": "address",
          "name": "_cErc20Contract",
          "type": "address"
        }
      ],
      "name": "withdraw",
      "outputs": [
        {
          "internalType": "uint256",
          "name": "",
          "type": "uint256"
        }
      ],
      "stateMutability": "nonpayable",
      "type": "function"
    },
    {
      "stateMutability": "payable",
      "type": "receive"
    }
  ],
  "bytecode": "0x60806040523480156200001157600080fd5b5060405162001d8138038062001d81833981810160405260808110156200003757600080fd5b8151602083018051604051929492938301929190846401000000008211156200005f57600080fd5b9083019060208201858111156200007557600080fd5b82516401000000008111828201881017156200009057600080fd5b82525081516020918201929091019080838360005b83811015620000bf578181015183820152602001620000a5565b50505050905090810190601f168015620000ed5780820380516001836020036101000a031916815260200191505b506040908152602082810151929091015185519294509250620001169160029186019062000161565b506003805460ff191692151592909217909155600180546001600160a01b03199081166001600160a01b039384161790915560008054909116939091169290921790915550620001fd565b828054600181600116156101000203166002900490600052602060002090601f016020900481019282601f10620001a457805160ff1916838001178555620001d4565b82800160010185558215620001d4579182015b82811115620001d4578251825591602001919060010190620001b7565b50620001e2929150620001e6565b5090565b5b80821115620001e25760008155600101620001e7565b611b74806200020d6000396000f3fe6080604052600436106100d55760003560e01c8063b460af941161007f578063dc1fb5a511610059578063dc1fb5a5146103da578063f53cc4b314610403578063f8b2cb4f1461043e578063fc2b68e714610471576100dc565b8063b460af9414610351578063bca1c85d14610392578063c6dca23b146103a7576100dc565b80635224372c116100b05780635224372c1461029a5780638340f549146102dd5780638da5cb5b14610320576100dc565b806220311b146100de57806306fdde03146101335780634883400d146101bd576100dc565b366100dc57005b005b3480156100ea57600080fd5b506101216004803603606081101561010157600080fd5b506001600160a01b038135811691602081013590911690604001356104a4565b60408051918252519081900360200190f35b34801561013f57600080fd5b506101486106db565b6040805160208082528351818301528351919283929083019185019080838360005b8381101561018257818101518382015260200161016a565b50505050905090810190601f1680156101af5780820380516001836020036101000a031916815260200191505b509250505060405180910390f35b3480156101c957600080fd5b5061024a600480360360408110156101e057600080fd5b6001600160a01b03823516919081019060408101602082013564010000000081111561020b57600080fd5b82018360208201111561021d57600080fd5b8035906020019184602083028401116401000000008311171561023f57600080fd5b509092509050610766565b60408051602080825283518183015283519192839290830191858101910280838360005b8381101561028657818101518382015260200161026e565b505050509050019250505060405180910390f35b3480156102a657600080fd5b50610121600480360360608110156102bd57600080fd5b506001600160a01b038135811691602081013590911690604001356108c7565b3480156102e957600080fd5b506101216004803603606081101561030057600080fd5b506001600160a01b03813581169160208101359091169060400135610a5c565b34801561032c57600080fd5b50610335610d0c565b604080516001600160a01b039092168252519081900360200190f35b34801561035d57600080fd5b506101216004803603606081101561037457600080fd5b508035906001600160a01b0360208201358116916040013516610d1b565b34801561039e57600080fd5b5061033561146b565b3480156103b357600080fd5b50610121600480360360208110156103ca57600080fd5b50356001600160a01b031661147a565b3480156103e657600080fd5b506103ef61148c565b604080519115158252519081900360200190f35b34801561040f57600080fd5b506101216004803603604081101561042657600080fd5b506001600160a01b0381358116916020013516611495565b34801561044a57600080fd5b506101216004803603602081101561046157600080fd5b50356001600160a01b0316611531565b34801561047d57600080fd5b506101216004803603602081101561049457600080fd5b50356001600160a01b0316611590565b6001546000906001600160a01b031633146104be57600080fd5b604080516323b872dd60e01b8152336004820152306024820152604481018490529051849186916001600160a01b038316916323b872dd9160648083019260209291908290030181600087803b15801561051757600080fd5b505af115801561052b573d6000803e3d6000fd5b505050506040513d602081101561054157600080fd5b505161057e5760405162461bcd60e51b8152600401808060200182810382526039815260200180611ac76039913960400191505060405180910390fd5b806001600160a01b031663095ea7b386866040518363ffffffff1660e01b815260040180836001600160a01b0316815260200182815260200192505050602060405180830381600087803b1580156105d557600080fd5b505af11580156105e9573d6000803e3d6000fd5b505050506040513d60208110156105ff57600080fd5b50506040805163073a938160e11b81526004810186905290516000916001600160a01b03851691630e7527029160248082019260209290919082900301818787803b15801561064d57600080fd5b505af1158015610661573d6000803e3d6000fd5b505050506040513d602081101561067757600080fd5b5051905080156106ce576040805162461bcd60e51b815260206004820152601660248201527f5265706179696e6720626f72726f77206661696c656400000000000000000000604482015290519081900360640190fd5b5060009695505050505050565b6002805460408051602060018416156101000260001901909316849004601f8101849004840282018401909252818152929183018282801561075e5780601f106107335761010080835404028352916020019161075e565b820191906000526020600020905b81548152906001019060200180831161074157829003601f168201915b505050505081565b6001546060906001600160a01b0316331461078057600080fd5b836001600160a01b031663c299823884846040518363ffffffff1660e01b815260040180806020018281038252848482818152602001925060200280828437600081840152601f19601f8201169050808301925050509350505050600060405180830381600087803b1580156107f557600080fd5b505af1158015610809573d6000803e3d6000fd5b505050506040513d6000823e601f3d908101601f19168201604052602081101561083257600080fd5b810190808051604051939291908464010000000082111561085257600080fd5b90830190602082018581111561086757600080fd5b825186602082028301116401000000008211171561088457600080fd5b82525081516020918201928201910280838360005b838110156108b1578181015183820152602001610899565b5050505090500160405250505090509392505050565b6001546000906001600160a01b031633146108e157600080fd5b60008390506000816001600160a01b031663c5ebeaec856040518263ffffffff1660e01b815260040180828152602001915050602060405180830381600087803b15801561092e57600080fd5b505af1158015610942573d6000803e3d6000fd5b505050506040513d602081101561095857600080fd5b5051905080156109995760405162461bcd60e51b815260040180806020018281038252602a815260200180611846602a913960400191505060405180910390fd5b6000866001600160a01b031663a9059cbb33876040518363ffffffff1660e01b815260040180836001600160a01b0316815260200182815260200192505050602060405180830381600087803b1580156109f257600080fd5b505af1158015610a06573d6000803e3d6000fd5b505050506040513d6020811015610a1c57600080fd5b50519050806106ce5760405162461bcd60e51b815260040180806020018281038252602b81526020018061195c602b913960400191505060405180910390fd5b6001546000906001600160a01b03163314610a7657600080fd5b604080516323b872dd60e01b8152336004820152306024820152604481018490529051859185916001600160a01b038416916323b872dd9160648083019260209291908290030181600087803b158015610acf57600080fd5b505af1158015610ae3573d6000803e3d6000fd5b505050506040513d6020811015610af957600080fd5b5051610b365760405162461bcd60e51b81526004018080602001828103825260388152602001806119876038913960400191505060405180910390fd5b816001600160a01b031663095ea7b386866040518363ffffffff1660e01b815260040180836001600160a01b0316815260200182815260200192505050602060405180830381600087803b158015610b8d57600080fd5b505af1158015610ba1573d6000803e3d6000fd5b505050506040513d6020811015610bb757600080fd5b50506040805163140e25ad60e31b81526004810186905290516000916001600160a01b0384169163a0712d689160248082019260209290919082900301818787803b158015610c0557600080fd5b505af1158015610c19573d6000803e3d6000fd5b505050506040513d6020811015610c2f57600080fd5b505190508015610c705760405162461bcd60e51b81526004018080602001828103825260278152602001806119356027913960400191505060405180910390fd5b6001600160a01b0383166000908152600460205260408120548190610c9590886115a2565b90925090506000826003811115610ca857fe5b14610ce45760405162461bcd60e51b8152600401808060200182810382526026815260200180611a6a6026913960400191505060405180910390fd5b6001600160a01b03909416600090815260046020526040902093909355925050509392505050565b6001546001600160a01b031681565b6001546000906001600160a01b03163314610d3557600080fd5b600080600080600080610d4661178c565b60408051633af9e66960e01b815230600482015290518b918b916000916001600160a01b03841691633af9e66991602480820192602092909190829003018186803b158015610d9457600080fd5b505afa158015610da8573d6000803e3d6000fd5b505050506040513d6020811015610dbe57600080fd5b50519050808e1115610e4c577f7979dc87a8aa237e89a521cf8882b835cf9a757fda430f3a2d925e1ef6c5bf57604051808060200182810382526027815260200180611b416027913960400191505060405180910390a160405162461bcd60e51b8152600401808060200182810382526032815260200180611a0b6032913960400191505060405180910390fd5b816001600160a01b031663852a12e38f6040518263ffffffff1660e01b815260040180828152602001915050602060405180830381600087803b158015610e9257600080fd5b505af1158015610ea6573d6000803e3d6000fd5b505050506040513d6020811015610ebc57600080fd5b505115610efa5760405162461bcd60e51b815260040180806020018281038252602d815260200180611a3d602d913960400191505060405180910390fd5b610f048e826115cb565b8552995060008a6003811115610f1657fe5b14610f525760405162461bcd60e51b81526004018080602001828103825260378152602001806118cc6037913960400191505060405180910390fd5b6001600160a01b038316600090815260046020526040902054610f7690829061167c565b909a50985060008a6003811115610f8957fe5b14610fc55760405162461bcd60e51b81526004018080602001828103825260328152602001806119036032913960400191505060405180910390fd5b8351610fd1908a61169f565b6020860152995060008a6003811115610fe657fe5b146110225760405162461bcd60e51b8152600401808060200182810382526037815260200180611a906037913960400191505060405180910390fd5b60035460ff16156110a55761103c84602001516002611707565b6040860152995060008a600381111561105157fe5b1461108d5760405162461bcd60e51b815260040180806020018281038252603a815260200180611892603a913960400191505060405180910390fd5b604084015151670de0b6b3a7640000900497506110b9565b602084015151670de0b6b3a7640000900497505b6110c38e8961167c565b909a50965060008a60038111156110d657fe5b146111125760405162461bcd60e51b815260040180806020018281038252603a8152602001806117d2603a913960400191505060405180910390fd5b600080546040805163a9059cbb60e01b81526001600160a01b039283166004820152602481018c905290519186169263a9059cbb926044808401936020939083900390910190829087803b15801561116957600080fd5b505af115801561117d573d6000803e3d6000fd5b505050506040513d602081101561119357600080fd5b50516111d05760405162461bcd60e51b81526004018080602001828103825260228152602001806118706022913960400191505060405180910390fd5b600054604080516001600160a01b03928316815291851660208301528181018a9052517f1321aa8a58141f9f78267b6b326e2e35fcca705b7476dd386135ea8fc091f10e9181900360600190a16040805163a9059cbb60e01b81523360048201526024810189905290516001600160a01b0385169163a9059cbb9160448083019260209291908290030181600087803b15801561126c57600080fd5b505af1158015611280573d6000803e3d6000fd5b505050506040513d602081101561129657600080fd5b50516112e9576040805162461bcd60e51b815260206004820181905260248201527f4572726f72207472616e7366657272696e672066756e647320746f2075736572604482015290519081900360640190fd5b60035460ff1615611353576112ff886002611722565b909a50955060008a600381111561131257fe5b1461134e5760405162461bcd60e51b815260040180806020018281038252603a81526020018061180c603a913960400191505060405180910390fd5b611357565b8795505b6113618e8761167c565b909a50945060008a600381111561137457fe5b146113b05760405162461bcd60e51b815260040180806020018281038252604c8152602001806119bf604c913960600191505060405180910390fd5b6001600160a01b0383166000908152600460205260409020546113d3908661167c565b6001600160a01b038516600090815260046020526040812091909155909a508a60038111156113fe57fe5b1461143a5760405162461bcd60e51b8152600401808060200182810382526041815260200180611b006041913960600191505060405180910390fd5b50506001600160a01b0316600090815260056020526040812080549096019095555092955050505050509392505050565b6000546001600160a01b031681565b60056020526000908152604090205481565b60035460ff1681565b6001546000906001600160a01b031633146114af57600080fd5b826001600160a01b031663ede4edd0836040518263ffffffff1660e01b815260040180826001600160a01b03168152602001915050602060405180830381600087803b1580156114fe57600080fd5b505af1158015611512573d6000803e3d6000fd5b505050506040513d602081101561152857600080fd5b50519392505050565b604080516370a0823160e01b8152336004820152905160009183916001600160a01b038316916370a08231916024808301926020929190829003018186803b15801561157c57600080fd5b505afa158015611512573d6000803e3d6000fd5b60046020526000908152604090205481565b6000808383018481106115ba576000925090506115c4565b6002600092509250505b9250929050565b60006115d56117be565b6000806115ea86670de0b6b3a7640000611722565b909250905060008260038111156115fd57fe5b1461161c575060408051602081019091526000815290925090506115c4565b6000806116298388611761565b9092509050600082600381111561163c57fe5b1461165f57816040518060200160405280600081525095509550505050506115c4565b604080516020810190915290815260009890975095505050505050565b6000808383116116935750600090508183036115c4565b506003905060006115c4565b60006116a96117be565b6000806116ba866000015186611722565b909250905060008260038111156116cd57fe5b146116ec575060408051602081019091526000815290925090506115c4565b60408051602081019091529081526000969095509350505050565b60006117116117be565b6000806116ba866000015186611761565b60008083611735575060009050806115c4565b8383028385828161174257fe5b0414611756576002600092509250506115c4565b6000925090506115c4565b6000808261177557506001905060006115c4565b600083858161178057fe5b04915091509250929050565b604051806060016040528061179f6117be565b81526020016117ac6117be565b81526020016117b96117be565b905290565b604051806020016040528060008152509056fe41726974686d65746963204661696c757265207768656e2063616c63756c6174696e6720616d6f756e7420746f2073656e6420746f207573657241726974686d65746963204661696c757265207768656e2063616c63756c6174696e6720746f74616c496e74657265737457697468647261776e4572726f72207768656e20626f72726f77696e672063546f6b656e732066726f6d20436f6d706f756e644572726f72207472616e7366657272696e672066756e647320746f207363686f6f6c4578706f6e656e7469616c204661696c757265207768656e2063616c63756c6174696e672068616c6657697468647261776e496e7465726573744578706f6e656e7469616c204661696c757265207768656e2063616c63756c6174696e67206672616374696f6e546f576974686472617741726974686d65746963204661696c757265207768656e2063616c63756c6174696e6720696e7465726573744561726e65644661696c757265207768656e20617474656d7074696e6720746f206d696e742063546f6b656e735472616e7366657272696e6720626f72726f77656420746f6b656e7320746f2075736572206661696c65644661696c7572653a20436f756c64206e6f74207472616e7366657220746f6b656e732066726f6d207573657220746f20636f6e747261637441726974686d65746963204661696c757265207768656e2063616c63756c6174696e67206e65772076616c756520666f7220616d6f756e7457697468647261776e46726f6d4465706f7369744661696c7572653a20417474656d7074696e6720746f207769746864726177206d6f7265207468616e20796f75206f776e2e4661696c656420746f2072656465656d2063546f6b656e7320666f7220756e6465726c79696e6720746f6b656e6572726f72207570646174696e6720696e697469616c2062616c616e6365206f6620757365724578706f6e656e7469616c204661696c757265207768656e2063616c63756c6174696e6720696e746572657374546f57697468647261775472616e73666572206f6620746f6b656e2066726f6d206d73672e73656e64657220746f207468697320636f6e7472616374206661696c656441726974686d65746963204661696c757265207768656e2063616c63756c6174696e67206e6e6577556e6465726c79696e67416d6f756e744465706f73697465645468657265206973206e6f7420656e6f75676820666f7220746865207769746864726177616c2ea164736f6c634300060c000a",
  "linkReferences": {},
  "deployedLinkReferences": {}
}