{
  "_format": "hh-sol-artifact-1",
  "contractName": "SchoolFactory",
  "sourceName": "contracts/SchoolFactory.sol",
  "abi": [
    {
      "anonymous": false,
      "inputs": [
        {
          "indexed": false,
          "internalType": "uint256",
          "name": "schoolId",
          "type": "uint256"
        },
        {
          "indexed": false,
          "internalType": "string",
          "name": "schoolName",
          "type": "string"
        }
      ],
      "name": "newSchoolEvent",
      "type": "event"
    },
    {
      "inputs": [
        {
          "internalType": "uint256",
          "name": "schoolId",
          "type": "uint256"
        },
        {
          "internalType": "address",
          "name": "_erc20Contract",
          "type": "address"
        }
      ],
      "name": "getSchoolBalance",
      "outputs": [
        {
          "internalType": "uint256",
          "name": "",
          "type": "uint256"
        }
      ],
      "stateMutability": "view",
      "type": "function"
    },
    {
      "inputs": [
        {
          "internalType": "address",
          "name": "_owner",
          "type": "address"
        }
      ],
      "name": "getSchoolByOwner",
      "outputs": [
        {
          "internalType": "uint256[]",
          "name": "",
          "type": "uint256[]"
        }
      ],
      "stateMutability": "view",
      "type": "function"
    },
    {
      "inputs": [
        {
          "internalType": "uint256",
          "name": "schoolId",
          "type": "uint256"
        }
      ],
      "name": "getSchoolName",
      "outputs": [
        {
          "internalType": "string",
          "name": "",
          "type": "string"
        }
      ],
      "stateMutability": "view",
      "type": "function"
    },
    {
      "inputs": [
        {
          "internalType": "string",
          "name": "_schoolName",
          "type": "string"
        }
      ],
      "name": "newSchool",
      "outputs": [],
      "stateMutability": "nonpayable",
      "type": "function"
    },
    {
      "inputs": [
        {
          "internalType": "uint256",
          "name": "",
          "type": "uint256"
        }
      ],
      "name": "schoolArray",
      "outputs": [
        {
          "internalType": "contract School",
          "name": "",
          "type": "address"
        }
      ],
      "stateMutability": "view",
      "type": "function"
    },
    {
      "inputs": [
        {
          "internalType": "uint256",
          "name": "schoolId",
          "type": "uint256"
        },
        {
          "internalType": "uint256",
          "name": "amount",
          "type": "uint256"
        },
        {
          "internalType": "address",
          "name": "_erc20Contract",
          "type": "address"
        }
      ],
      "name": "withdrawBalance",
      "outputs": [
        {
          "internalType": "uint256",
          "name": "",
          "type": "uint256"
        }
      ],
      "stateMutability": "nonpayable",
      "type": "function"
    }
  ],
  "bytecode": "0x608060405234801561001057600080fd5b50612fa1806100206000396000f3fe608060405234801561001057600080fd5b50600436106100725760003560e01c8063f924a0d311610050578063f924a0d3146101bd578063f974054e146101f6578063fb3d47711461029e57610072565b806306aa364a146100775780638e64018d146100ed578063cb0810fb1461012b575b600080fd5b61009d6004803603602081101561008d57600080fd5b50356001600160a01b03166102d0565b60408051602080825283518183015283519192839290830191858101910280838360005b838110156100d95781810151838201526020016100c1565b505050509050019250505060405180910390f35b6101196004803603604081101561010357600080fd5b50803590602001356001600160a01b0316610391565b60408051918252519081900360200190f35b6101486004803603602081101561014157600080fd5b503561047e565b6040805160208082528351818301528351919283929083019185019080838360005b8381101561018257818101518382015260200161016a565b50505050905090810190601f1680156101af5780820380516001836020036101000a031916815260200191505b509250505060405180910390f35b6101da600480360360208110156101d357600080fd5b5035610622565b604080516001600160a01b039092168252519081900360200190f35b61029c6004803603602081101561020c57600080fd5b81019060208101813564010000000081111561022757600080fd5b82018360208201111561023957600080fd5b8035906020019184600183028401116401000000008311171561025b57600080fd5b91908080601f016020809104026020016040519081016040528093929190818152602001838380828437600092019190915250929550610649945050505050565b005b610119600480360360608110156102b457600080fd5b50803590602081013590604001356001600160a01b03166107fe565b6001600160a01b038116600090815260026020526040902054606090819067ffffffffffffffff8111801561030457600080fd5b5060405190808252806020026020018201604052801561032e578160200160208202803683370190505b5090506000805b600054811015610388576000818152600160205260409020546001600160a01b0386811691161415610380578083838151811061036e57fe5b60209081029190910101526001909101905b600101610335565b50909392505050565b60008054839081106103ea576040805162461bcd60e51b815260206004820152601560248201527f5363686f6f6c20646f6573206e6f742065786973740000000000000000000000604482015290519081900360640190fd5b600084815481106103f757fe5b600091825260209182902001546040805163f8b2cb4f60e01b81526001600160a01b0387811660048301529151919092169263f8b2cb4f9260248082019391829003018186803b15801561044a57600080fd5b505afa15801561045e573d6000803e3d6000fd5b505050506040513d602081101561047457600080fd5b5051949350505050565b600054606090829081106104d9576040805162461bcd60e51b815260206004820152601560248201527f5363686f6f6c20646f6573206e6f742065786973740000000000000000000000604482015290519081900360640190fd5b600083815481106104e657fe5b6000918252602082200154604080516305f5f79f60e21b815290516001600160a01b03909216926317d7de7c92600480840193829003018186803b15801561052d57600080fd5b505afa158015610541573d6000803e3d6000fd5b505050506040513d6000823e601f3d908101601f19168201604052602081101561056a57600080fd5b810190808051604051939291908464010000000082111561058a57600080fd5b90830190602082018581111561059f57600080fd5b82516401000000008111828201881017156105b957600080fd5b82525081516020918201929091019080838360005b838110156105e65781810151838201526020016105ce565b50505050905090810190601f1680156106135780820380516001836020036101000a031916815260200191505b50604052505050915050919050565b6000818154811061062f57fe5b6000918252602090912001546001600160a01b0316905081565b600081604051610658906108f9565b60208082528251818301528251829160408301919085019080838360005b8381101561068e578181015183820152602001610676565b50505050905090810190601f1680156106bb5780820380516001836020036101000a031916815260200191505b5092505050604051809103906000f0801580156106dc573d6000803e3d6000fd5b508154600181810184556000938452602080852090920180546001600160a01b039094167fffffffffffffffffffffffff000000000000000000000000000000000000000094851617905583546000190180855281835260408086208054909516339081179095559385526002835283852080549092019091558251818152808301848152865194820194909452855191947fdde35bdb1f666cab1ce518cb653f9bdca7af31db83a0840f216ee919bc3e8e2994869488949192606085019291860191908190849084905b838110156107bf5781810151838201526020016107a7565b50505050905090810190601f1680156107ec5780820380516001836020036101000a031916815260200191505b50935050505060405180910390a15050565b6000805484908110610857576040805162461bcd60e51b815260206004820152601560248201527f5363686f6f6c20646f6573206e6f742065786973740000000000000000000000604482015290519081900360640190fd5b6000858154811061086457fe5b6000918252602080832090910154604080516379e81f3960e01b8152600481018990526001600160a01b038881166024830152915191909216936379e81f3993604480850194919392918390030190829087803b1580156108c457600080fd5b505af11580156108d8573d6000803e3d6000fd5b505050506040513d60208110156108ee57600080fd5b505195945050505050565b61268e806109078339019056fe608060405234801561001057600080fd5b5060405161268e38038061268e8339818101604052602081101561003357600080fd5b810190808051604051939291908464010000000082111561005357600080fd5b90830190602082018581111561006857600080fd5b825164010000000081118282018810171561008257600080fd5b82525081516020918201929091019080838360005b838110156100af578181015183820152602001610097565b50505050905090810190601f1680156100dc5780820380516001836020036101000a031916815260200191505b50604052505081516100f69150600190602084019061010f565b5050600080546001600160a01b031916331790556101a2565b828054600181600116156101000203166002900490600052602060002090601f016020900481019282601f1061015057805160ff191683800117855561017d565b8280016001018555821561017d579182015b8281111561017d578251825591602001919060010190610162565b5061018992915061018d565b5090565b5b80821115610189576000815560010161018e565b6124dd806101b16000396000f3fe6080604052600436106100745760003560e01c8063423928b71161004e578063423928b7146101cf57806379e81f39146102005780638da5cb5b1461024b578063f8b2cb4f146102605761007b565b8063063473c51461007d57806306fdde031461013057806317d7de7c146101ba5761007b565b3661007b57005b005b34801561008957600080fd5b5061007b600480360360208110156100a057600080fd5b8101906020810181356401000000008111156100bb57600080fd5b8201836020820111156100cd57600080fd5b803590602001918460018302840111640100000000831117156100ef57600080fd5b91908080601f016020809104026020016040519081016040528093929190818152602001838380828437600092019190915250929550610293945050505050565b34801561013c57600080fd5b50610145610395565b6040805160208082528351818301528351919283929083019185019080838360005b8381101561017f578181015183820152602001610167565b50505050905090810190601f1680156101ac5780820380516001836020036101000a031916815260200191505b509250505060405180910390f35b3480156101c657600080fd5b50610145610422565b3480156101db57600080fd5b506101e46104b7565b604080516001600160a01b039092168252519081900360200190f35b34801561020c57600080fd5b506102396004803603604081101561022357600080fd5b50803590602001356001600160a01b03166104d3565b60408051918252519081900360200190f35b34801561025757600080fd5b506101e4610693565b34801561026c57600080fd5b506102396004803603602081101561028357600080fd5b50356001600160a01b03166106a2565b30816001336040516102a490610720565b6001600160a01b03808616825283151560408301528216606082015260806020808301828152865192840192909252855160a084019187019080838360005b838110156102fb5781810151838201526020016102e3565b50505050905090810190601f1680156103285780820380516001836020036101000a031916815260200191505b5095505050505050604051809103906000f08015801561034c573d6000803e3d6000fd5b5033600090815260026020526040902080547fffffffffffffffffffffffff0000000000000000000000000000000000000000166001600160a01b039290921691909117905550565b60018054604080516020600284861615610100026000190190941693909304601f8101849004840282018401909252818152929183018282801561041a5780601f106103ef5761010080835404028352916020019161041a565b820191906000526020600020905b8154815290600101906020018083116103fd57829003601f168201915b505050505081565b60018054604080516020601f600260001961010087891615020190951694909404938401819004810282018101909252828152606093909290918301828280156104ad5780601f10610482576101008083540402835291602001916104ad565b820191906000526020600020905b81548152906001019060200180831161049057829003601f168201915b5050505050905090565b336000908152600260205260409020546001600160a01b031690565b6000808290506000816001600160a01b03166370a08231306040518263ffffffff1660e01b815260040180826001600160a01b0316815260200191505060206040518083038186803b15801561052857600080fd5b505afa15801561053c573d6000803e3d6000fd5b505050506040513d602081101561055257600080fd5b50519050848111156105955760405162461bcd60e51b81526004018080602001828103825260218152602001806124b06021913960400191505060405180910390fd5b600080546040805163a9059cbb60e01b81526001600160a01b0392831660048201526024810189905290519185169263a9059cbb926044808401936020939083900390910190829087803b1580156105ec57600080fd5b505af1158015610600573d6000803e3d6000fd5b505050506040513d602081101561061657600080fd5b5050604080516370a0823160e01b815230600482015290516001600160a01b038416916370a08231916024808301926020929190829003018186803b15801561065e57600080fd5b505afa158015610672573d6000803e3d6000fd5b505050506040513d602081101561068857600080fd5b505195945050505050565b6000546001600160a01b031681565b604080516370a0823160e01b8152306004820152905160009183916001600160a01b038316916370a08231916024808301926020929190829003018186803b1580156106ed57600080fd5b505afa158015610701573d6000803e3d6000fd5b505050506040513d602081101561071757600080fd5b50519392505050565b611d828061072e8339019056fe60806040523480156200001157600080fd5b5060405162001d8238038062001d82833981810160405260808110156200003757600080fd5b8151602083018051604051929492938301929190846401000000008211156200005f57600080fd5b9083019060208201858111156200007557600080fd5b82516401000000008111828201881017156200009057600080fd5b82525081516020918201929091019080838360005b83811015620000bf578181015183820152602001620000a5565b50505050905090810190601f168015620000ed5780820380516001836020036101000a031916815260200191505b506040908152602082810151929091015185519294509250620001169160029186019062000161565b506003805460ff191692151592909217909155600180546001600160a01b03199081166001600160a01b039384161790915560008054909116939091169290921790915550620001fd565b828054600181600116156101000203166002900490600052602060002090601f016020900481019282601f10620001a457805160ff1916838001178555620001d4565b82800160010185558215620001d4579182015b82811115620001d4578251825591602001919060010190620001b7565b50620001e2929150620001e6565b5090565b5b80821115620001e25760008155600101620001e7565b611b75806200020d6000396000f3fe6080604052600436106100d55760003560e01c8063b460af941161007f578063dc1fb5a511610059578063dc1fb5a5146103da578063f53cc4b314610403578063f8b2cb4f1461043e578063fc2b68e714610471576100dc565b8063b460af9414610351578063bca1c85d14610392578063c6dca23b146103a7576100dc565b80635224372c116100b05780635224372c1461029a5780638340f549146102dd5780638da5cb5b14610320576100dc565b806220311b146100de57806306fdde03146101335780634883400d146101bd576100dc565b366100dc57005b005b3480156100ea57600080fd5b506101216004803603606081101561010157600080fd5b506001600160a01b038135811691602081013590911690604001356104a4565b60408051918252519081900360200190f35b34801561013f57600080fd5b506101486106db565b6040805160208082528351818301528351919283929083019185019080838360005b8381101561018257818101518382015260200161016a565b50505050905090810190601f1680156101af5780820380516001836020036101000a031916815260200191505b509250505060405180910390f35b3480156101c957600080fd5b5061024a600480360360408110156101e057600080fd5b6001600160a01b03823516919081019060408101602082013564010000000081111561020b57600080fd5b82018360208201111561021d57600080fd5b8035906020019184602083028401116401000000008311171561023f57600080fd5b509092509050610766565b60408051602080825283518183015283519192839290830191858101910280838360005b8381101561028657818101518382015260200161026e565b505050509050019250505060405180910390f35b3480156102a657600080fd5b50610121600480360360608110156102bd57600080fd5b506001600160a01b038135811691602081013590911690604001356108c7565b3480156102e957600080fd5b506101216004803603606081101561030057600080fd5b506001600160a01b03813581169160208101359091169060400135610a5c565b34801561032c57600080fd5b50610335610d0c565b604080516001600160a01b039092168252519081900360200190f35b34801561035d57600080fd5b506101216004803603606081101561037457600080fd5b508035906001600160a01b0360208201358116916040013516610d1b565b34801561039e57600080fd5b5061033561146c565b3480156103b357600080fd5b50610121600480360360208110156103ca57600080fd5b50356001600160a01b031661147b565b3480156103e657600080fd5b506103ef61148d565b604080519115158252519081900360200190f35b34801561040f57600080fd5b506101216004803603604081101561042657600080fd5b506001600160a01b0381358116916020013516611496565b34801561044a57600080fd5b506101216004803603602081101561046157600080fd5b50356001600160a01b0316611532565b34801561047d57600080fd5b506101216004803603602081101561049457600080fd5b50356001600160a01b0316611591565b6001546000906001600160a01b031633146104be57600080fd5b604080516323b872dd60e01b8152336004820152306024820152604481018490529051849186916001600160a01b038316916323b872dd9160648083019260209291908290030181600087803b15801561051757600080fd5b505af115801561052b573d6000803e3d6000fd5b505050506040513d602081101561054157600080fd5b505161057e5760405162461bcd60e51b8152600401808060200182810382526039815260200180611ac86039913960400191505060405180910390fd5b806001600160a01b031663095ea7b386866040518363ffffffff1660e01b815260040180836001600160a01b0316815260200182815260200192505050602060405180830381600087803b1580156105d557600080fd5b505af11580156105e9573d6000803e3d6000fd5b505050506040513d60208110156105ff57600080fd5b50506040805163073a938160e11b81526004810186905290516000916001600160a01b03851691630e7527029160248082019260209290919082900301818787803b15801561064d57600080fd5b505af1158015610661573d6000803e3d6000fd5b505050506040513d602081101561067757600080fd5b5051905080156106ce576040805162461bcd60e51b815260206004820152601660248201527f5265706179696e6720626f72726f77206661696c656400000000000000000000604482015290519081900360640190fd5b5060009695505050505050565b6002805460408051602060018416156101000260001901909316849004601f8101849004840282018401909252818152929183018282801561075e5780601f106107335761010080835404028352916020019161075e565b820191906000526020600020905b81548152906001019060200180831161074157829003601f168201915b505050505081565b6001546060906001600160a01b0316331461078057600080fd5b836001600160a01b031663c299823884846040518363ffffffff1660e01b815260040180806020018281038252848482818152602001925060200280828437600081840152601f19601f8201169050808301925050509350505050600060405180830381600087803b1580156107f557600080fd5b505af1158015610809573d6000803e3d6000fd5b505050506040513d6000823e601f3d908101601f19168201604052602081101561083257600080fd5b810190808051604051939291908464010000000082111561085257600080fd5b90830190602082018581111561086757600080fd5b825186602082028301116401000000008211171561088457600080fd5b82525081516020918201928201910280838360005b838110156108b1578181015183820152602001610899565b5050505090500160405250505090509392505050565b6001546000906001600160a01b031633146108e157600080fd5b60008390506000816001600160a01b031663c5ebeaec856040518263ffffffff1660e01b815260040180828152602001915050602060405180830381600087803b15801561092e57600080fd5b505af1158015610942573d6000803e3d6000fd5b505050506040513d602081101561095857600080fd5b5051905080156109995760405162461bcd60e51b815260040180806020018281038252602a815260200180611847602a913960400191505060405180910390fd5b6000866001600160a01b031663a9059cbb33876040518363ffffffff1660e01b815260040180836001600160a01b0316815260200182815260200192505050602060405180830381600087803b1580156109f257600080fd5b505af1158015610a06573d6000803e3d6000fd5b505050506040513d6020811015610a1c57600080fd5b50519050806106ce5760405162461bcd60e51b815260040180806020018281038252602b81526020018061195d602b913960400191505060405180910390fd5b6001546000906001600160a01b03163314610a7657600080fd5b604080516323b872dd60e01b8152336004820152306024820152604481018490529051859185916001600160a01b038416916323b872dd9160648083019260209291908290030181600087803b158015610acf57600080fd5b505af1158015610ae3573d6000803e3d6000fd5b505050506040513d6020811015610af957600080fd5b5051610b365760405162461bcd60e51b81526004018080602001828103825260388152602001806119886038913960400191505060405180910390fd5b816001600160a01b031663095ea7b386866040518363ffffffff1660e01b815260040180836001600160a01b0316815260200182815260200192505050602060405180830381600087803b158015610b8d57600080fd5b505af1158015610ba1573d6000803e3d6000fd5b505050506040513d6020811015610bb757600080fd5b50506040805163140e25ad60e31b81526004810186905290516000916001600160a01b0384169163a0712d689160248082019260209290919082900301818787803b158015610c0557600080fd5b505af1158015610c19573d6000803e3d6000fd5b505050506040513d6020811015610c2f57600080fd5b505190508015610c705760405162461bcd60e51b81526004018080602001828103825260278152602001806119366027913960400191505060405180910390fd5b6001600160a01b0383166000908152600460205260408120548190610c9590886115a3565b90925090506000826003811115610ca857fe5b14610ce45760405162461bcd60e51b8152600401808060200182810382526026815260200180611a6b6026913960400191505060405180910390fd5b6001600160a01b03909416600090815260046020526040902093909355925050509392505050565b6001546001600160a01b031681565b6001546000906001600160a01b03163314610d3557600080fd5b600080600080600080610d4661178d565b60408051633af9e66960e01b815230600482015290518b918b916000916001600160a01b03841691633af9e6699160248082019260209290919082900301818787803b158015610d9557600080fd5b505af1158015610da9573d6000803e3d6000fd5b505050506040513d6020811015610dbf57600080fd5b50519050808e1115610e4d577f7979dc87a8aa237e89a521cf8882b835cf9a757fda430f3a2d925e1ef6c5bf57604051808060200182810382526027815260200180611b426027913960400191505060405180910390a160405162461bcd60e51b8152600401808060200182810382526032815260200180611a0c6032913960400191505060405180910390fd5b816001600160a01b031663852a12e38f6040518263ffffffff1660e01b815260040180828152602001915050602060405180830381600087803b158015610e9357600080fd5b505af1158015610ea7573d6000803e3d6000fd5b505050506040513d6020811015610ebd57600080fd5b505115610efb5760405162461bcd60e51b815260040180806020018281038252602d815260200180611a3e602d913960400191505060405180910390fd5b610f058e826115cc565b8552995060008a6003811115610f1757fe5b14610f535760405162461bcd60e51b81526004018080602001828103825260378152602001806118cd6037913960400191505060405180910390fd5b6001600160a01b038316600090815260046020526040902054610f7790829061167d565b909a50985060008a6003811115610f8a57fe5b14610fc65760405162461bcd60e51b81526004018080602001828103825260328152602001806119046032913960400191505060405180910390fd5b8351610fd2908a6116a0565b6020860152995060008a6003811115610fe757fe5b146110235760405162461bcd60e51b8152600401808060200182810382526037815260200180611a916037913960400191505060405180910390fd5b60035460ff16156110a65761103d84602001516002611708565b6040860152995060008a600381111561105257fe5b1461108e5760405162461bcd60e51b815260040180806020018281038252603a815260200180611893603a913960400191505060405180910390fd5b604084015151670de0b6b3a7640000900497506110ba565b602084015151670de0b6b3a7640000900497505b6110c48e8961167d565b909a50965060008a60038111156110d757fe5b146111135760405162461bcd60e51b815260040180806020018281038252603a8152602001806117d3603a913960400191505060405180910390fd5b600080546040805163a9059cbb60e01b81526001600160a01b039283166004820152602481018c905290519186169263a9059cbb926044808401936020939083900390910190829087803b15801561116a57600080fd5b505af115801561117e573d6000803e3d6000fd5b505050506040513d602081101561119457600080fd5b50516111d15760405162461bcd60e51b81526004018080602001828103825260228152602001806118716022913960400191505060405180910390fd5b600054604080516001600160a01b03928316815291851660208301528181018a9052517f1321aa8a58141f9f78267b6b326e2e35fcca705b7476dd386135ea8fc091f10e9181900360600190a16040805163a9059cbb60e01b81523360048201526024810189905290516001600160a01b0385169163a9059cbb9160448083019260209291908290030181600087803b15801561126d57600080fd5b505af1158015611281573d6000803e3d6000fd5b505050506040513d602081101561129757600080fd5b50516112ea576040805162461bcd60e51b815260206004820181905260248201527f4572726f72207472616e7366657272696e672066756e647320746f2075736572604482015290519081900360640190fd5b60035460ff161561135457611300886002611723565b909a50955060008a600381111561131357fe5b1461134f5760405162461bcd60e51b815260040180806020018281038252603a81526020018061180d603a913960400191505060405180910390fd5b611358565b8795505b6113628e8761167d565b909a50945060008a600381111561137557fe5b146113b15760405162461bcd60e51b815260040180806020018281038252604c8152602001806119c0604c913960600191505060405180910390fd5b6001600160a01b0383166000908152600460205260409020546113d4908661167d565b6001600160a01b038516600090815260046020526040812091909155909a508a60038111156113ff57fe5b1461143b5760405162461bcd60e51b8152600401808060200182810382526041815260200180611b016041913960600191505060405180910390fd5b50506001600160a01b0316600090815260056020526040812080549096019095555092955050505050509392505050565b6000546001600160a01b031681565b60056020526000908152604090205481565b60035460ff1681565b6001546000906001600160a01b031633146114b057600080fd5b826001600160a01b031663ede4edd0836040518263ffffffff1660e01b815260040180826001600160a01b03168152602001915050602060405180830381600087803b1580156114ff57600080fd5b505af1158015611513573d6000803e3d6000fd5b505050506040513d602081101561152957600080fd5b50519392505050565b604080516370a0823160e01b8152336004820152905160009183916001600160a01b038316916370a08231916024808301926020929190829003018186803b15801561157d57600080fd5b505afa158015611513573d6000803e3d6000fd5b60046020526000908152604090205481565b6000808383018481106115bb576000925090506115c5565b6002600092509250505b9250929050565b60006115d66117bf565b6000806115eb86670de0b6b3a7640000611723565b909250905060008260038111156115fe57fe5b1461161d575060408051602081019091526000815290925090506115c5565b60008061162a8388611762565b9092509050600082600381111561163d57fe5b1461166057816040518060200160405280600081525095509550505050506115c5565b604080516020810190915290815260009890975095505050505050565b6000808383116116945750600090508183036115c5565b506003905060006115c5565b60006116aa6117bf565b6000806116bb866000015186611723565b909250905060008260038111156116ce57fe5b146116ed575060408051602081019091526000815290925090506115c5565b60408051602081019091529081526000969095509350505050565b60006117126117bf565b6000806116bb866000015186611762565b60008083611736575060009050806115c5565b8383028385828161174357fe5b0414611757576002600092509250506115c5565b6000925090506115c5565b6000808261177657506001905060006115c5565b600083858161178157fe5b04915091509250929050565b60405180606001604052806117a06117bf565b81526020016117ad6117bf565b81526020016117ba6117bf565b905290565b604051806020016040528060008152509056fe41726974686d65746963204661696c757265207768656e2063616c63756c6174696e6720616d6f756e7420746f2073656e6420746f207573657241726974686d65746963204661696c757265207768656e2063616c63756c6174696e6720746f74616c496e74657265737457697468647261776e4572726f72207768656e20626f72726f77696e672063546f6b656e732066726f6d20436f6d706f756e644572726f72207472616e7366657272696e672066756e647320746f207363686f6f6c4578706f6e656e7469616c204661696c757265207768656e2063616c63756c6174696e672068616c6657697468647261776e496e7465726573744578706f6e656e7469616c204661696c757265207768656e2063616c63756c6174696e67206672616374696f6e546f576974686472617741726974686d65746963204661696c757265207768656e2063616c63756c6174696e6720696e7465726573744561726e65644661696c757265207768656e20617474656d7074696e6720746f206d696e742063546f6b656e735472616e7366657272696e6720626f72726f77656420746f6b656e7320746f2075736572206661696c65644661696c7572653a20436f756c64206e6f74207472616e7366657220746f6b656e732066726f6d207573657220746f20636f6e747261637441726974686d65746963204661696c757265207768656e2063616c63756c6174696e67206e65772076616c756520666f7220616d6f756e7457697468647261776e46726f6d4465706f7369744661696c7572653a20417474656d7074696e6720746f207769746864726177206d6f7265207468616e20796f75206f776e2e4661696c656420746f2072656465656d2063546f6b656e7320666f7220756e6465726c79696e6720746f6b656e6572726f72207570646174696e6720696e697469616c2062616c616e6365206f6620757365724578706f6e656e7469616c204661696c757265207768656e2063616c63756c6174696e6720696e746572657374546f57697468647261775472616e73666572206f6620746f6b656e2066726f6d206d73672e73656e64657220746f207468697320636f6e7472616374206661696c656441726974686d65746963204661696c757265207768656e2063616c63756c6174696e67206e6e6577556e6465726c79696e67416d6f756e744465706f73697465645468657265206973206e6f7420656e6f75676820666f7220746865207769746864726177616c2ea164736f6c634300060c000a63616e6e6f74207769746864726177206d6f7265207468616e2062616c616e6365a164736f6c634300060c000aa164736f6c634300060c000a",
  "linkReferences": {},
  "deployedLinkReferences": {}
}