{
  "_format": "hh-sol-artifact-1",
  "contractName": "Satchel",
  "sourceName": "contracts/Satchel.sol",
  "abi": [
    {
      "inputs": [
        {
          "internalType": "address",
          "name": "_satchelOwner",
          "type": "address"
        }
      ],
      "stateMutability": "nonpayable",
      "type": "constructor"
    },
    {
      "anonymous": false,
      "inputs": [
        {
          "indexed": false,
          "internalType": "uint256",
          "name": "id",
          "type": "uint256"
        },
        {
          "indexed": false,
          "internalType": "address",
          "name": "ownerAddress",
          "type": "address"
        }
      ],
      "name": "OrganizationCreated",
      "type": "event"
    },
    {
      "inputs": [
        {
          "internalType": "uint256",
          "name": "orgID",
          "type": "uint256"
        },
        {
          "internalType": "address",
          "name": "ownerAddress",
          "type": "address"
        }
      ],
      "name": "createOrg",
      "outputs": [],
      "stateMutability": "nonpayable",
      "type": "function"
    },
    {
      "inputs": [
        {
          "internalType": "uint256",
          "name": "",
          "type": "uint256"
        }
      ],
      "name": "orgs",
      "outputs": [
        {
          "internalType": "contract Organization",
          "name": "",
          "type": "address"
        }
      ],
      "stateMutability": "view",
      "type": "function"
    }
  ],
  "bytecode": "0x608060405234801561001057600080fd5b50604051611b7a380380611b7a83398101604081905261002f91610054565b600180546001600160a01b0319166001600160a01b0392909216919091179055610084565b60006020828403121561006657600080fd5b81516001600160a01b038116811461007d57600080fd5b9392505050565b611ae7806100936000396000f3fe608060405234801561001057600080fd5b50600436106100365760003560e01c80634f5c2e6c1461003b578063cd23b7e114610080575b600080fd5b610064610049366004610295565b6000602081905290815260409020546001600160a01b031681565b6040516001600160a01b03909116815260200160405180910390f35b61009361008e3660046102ae565b610095565b005b6001546001600160a01b0316331461011a5760405162461bcd60e51b815260206004820152602f60248201527f596f75206d75737420626520746865206f776e657220746f206372656174652060448201527f616e206f7267616e697a6174696f6e000000000000000000000000000000000060648201526084015b60405180910390fd5b816101675760405162461bcd60e51b815260206004820152601f60248201527f596f75206d6179206e6f742063726561746520746865207a65726f206f7267006044820152606401610111565b6000828152602081905260409020546001600160a01b0316156101cc5760405162461bcd60e51b815260206004820152601960248201527f546865206f7267204944206d75737420626520756e69717565000000000000006044820152606401610111565b81816040516101da90610288565b9182526001600160a01b03166020820152604001604051809103906000f08015801561020a573d6000803e3d6000fd5b506000838152602081815260409182902080547fffffffffffffffffffffffff0000000000000000000000000000000000000000166001600160a01b039485161790558151858152928416908301527f0ce81df677347dd4476e2f5358d95e39aa67d12bfbb33cb7eb78e5b3140abb3a910160405180910390a15050565b6117f0806102eb83390190565b6000602082840312156102a757600080fd5b5035919050565b600080604083850312156102c157600080fd5b8235915060208301356001600160a01b03811681146102df57600080fd5b80915050925092905056fe608060405234801561001057600080fd5b506040516117f03803806117f083398101604081905261002f91610059565b600091909155600180546001600160a01b0319166001600160a01b03909216919091179055610096565b6000806040838503121561006c57600080fd5b825160208401519092506001600160a01b038116811461008b57600080fd5b809150509250929050565b61174b806100a56000396000f3fe608060405234801561001057600080fd5b506004361061004c5760003560e01c8063719c0d0414610051578063798230ef1461009757806387035809146100ac578063ab9dbd07146100bf575b600080fd5b61007a61005f36600461030a565b6002602052600090815260409020546001600160a01b031681565b6040516001600160a01b0390911681526020015b60405180910390f35b6100aa6100a536600461033f565b6100d0565b005b6100aa6100ba366004610374565b61021f565b60005460405190815260200161008e565b6001546001600160a01b031633146100ea576100ea6103a0565b6000838152600260205260409081902054905163095ea7b360e01b81526001600160a01b038481166004830152602482018490529091169063095ea7b390604401600060405180830381600087803b15801561014557600080fd5b505af1158015610159573d6000803e3d6000fd5b5050506000848152600260205260409081902054905163a9059cbb60e01b81526001600160a01b03858116600483015260248201859052909116915063a9059cbb90604401600060405180830381600087803b1580156101b857600080fd5b505af11580156101cc573d6000803e3d6000fd5b5050604080518681526001600160a01b03861660208201529081018490527ff5b85d1996bc73dd4322b1c984a724e7d550dc6c2c31e057fca8cb852ac28ccb9250606001905060405180910390a1505050565b6001546001600160a01b03163314610239576102396103a0565b813082604051610248906102fd565b9283526001600160a01b039182166020840152166040820152606001604051809103906000f080158015610280573d6000803e3d6000fd5b5060008381526002602090815260409182902080547fffffffffffffffffffffffff0000000000000000000000000000000000000000166001600160a01b039490941693909317909255518381527fa5c637f4704313753c9e923e8238cf0ad9f3d78fa49bebfcb77227e5f985ff9a910160405180910390a15050565b611388806103b783390190565b60006020828403121561031c57600080fd5b5035919050565b80356001600160a01b038116811461033a57600080fd5b919050565b60008060006060848603121561035457600080fd5b8335925061036460208501610323565b9150604084013590509250925092565b6000806040838503121561038757600080fd5b8235915061039760208401610323565b90509250929050565b634e487b7160e01b600052600160045260246000fdfe608060405264e8d4a510006006553480156200001a57600080fd5b5060405162001388380380620013888339810160408190526200003d916200028d565b6000838155600480546001600160a01b038086166001600160a01b0319928316178355600580549186169190921617905581906200007e9060039062000112565b909250905060008260038111156200009a576200009a620002ce565b14620001035760405162461bcd60e51b815260206004820152602e60248201527f4578706f6e656e7469616c204661696c757265207768656e2073657474696e6760448201526d081a5b9d195c995cdd14dc1b1a5d60921b606482015260840160405180910390fd5b51600355506200033592505050565b60006200012b6040518060200160405280600081525090565b6000806200014286670de0b6b3a7640000620001ee565b909250905060008260038111156200015e576200015e620002ce565b146200017f57506040805160208101909152600081529092509050620001e7565b6000806200018e838862000241565b90925090506000826003811115620001aa57620001aa620002ce565b14620001cf5781604051806020016040528060008152509550955050505050620001e7565b60408051602081019091529081526000955093505050505b9250929050565b600080836200020357506000905080620001e7565b6000620002118486620002e4565b90508362000220868362000312565b146200023557600260009250925050620001e7565b600092509050620001e7565b60008082620002575750600190506000620001e7565b600062000265848662000312565b915091509250929050565b80516001600160a01b03811681146200028857600080fd5b919050565b600080600060608486031215620002a357600080fd5b83519250620002b56020850162000270565b9150620002c56040850162000270565b90509250925092565b634e487b7160e01b600052602160045260246000fd5b60008160001904831182151516156200030d57634e487b7160e01b600052601160045260246000fd5b500290565b6000826200033057634e487b7160e01b600052601260045260246000fd5b500490565b61104380620003456000396000f3fe608060405234801561001057600080fd5b50600436106100be5760003560e01c8063ab9dbd0711610076578063d3d381931161005b578063d3d3819314610173578063d4fac45d14610186578063d9caed121461019957600080fd5b8063ab9dbd0714610141578063bf6b874e1461015357600080fd5b80638340f549116100a75780638340f54914610108578063a59a99731461011b578063a9059cbb1461012e57600080fd5b8063095ea7b3146100c357806323bd4d7a146100d8575b600080fd5b6100d66100d1366004610e95565b6101ac565b005b6004546100eb906001600160a01b031681565b6040516001600160a01b0390911681526020015b60405180910390f35b6100d6610116366004610ebf565b610249565b6005546100eb906001600160a01b031681565b6100d661013c366004610e95565b610545565b6000545b6040519081526020016100ff565b610145610161366004610efb565b60016020526000908152604090205481565b610145610181366004610efb565b61059d565b610145610194366004610f16565b610611565b6100d66101a7366004610ebf565b610667565b6004546001600160a01b031633146101c6576101c6610f49565b6004805460405163095ea7b360e01b81526001600160a01b03918216928101929092526024820183905283919082169063095ea7b3906044015b6020604051808303816000875af115801561021f573d6000803e3d6000fd5b505050506040513d601f19601f820116820180604052508101906102439190610f5f565b50505050565b6001600160a01b03821660009081526001602052604090205461027657610271838383610a55565b505050565b60006102828383610c41565b3360009081526002602090815260408083206001600160a01b03881684529091528120805460019091015492935090916102bd918691610c6f565b3360009081526002602090815260408083206001600160a01b03891684529091528120600101805492935084929091906102f8908490610f97565b90915550506001600160a01b03841660009081526001602052604081208054849290610325908490610f97565b90915550506040516323b872dd60e01b81523360048201523060248201526044810184905285906001600160a01b038216906323b872dd906064016020604051808303816000875af115801561037f573d6000803e3d6000fd5b505050506040513d601f19601f820116820180604052508101906103a39190610f5f565b5060055460405163095ea7b360e01b81526001600160a01b0391821660048201819052602482018790529183169063095ea7b3906044016020604051808303816000875af11580156103f9573d6000803e3d6000fd5b505050506040513d601f19601f8201168201806040525081019061041d9190610f5f565b5060405163e8eda9df60e01b81526001600160a01b038881166004830152602482018790523060448301526000606483015282169063e8eda9df90608401600060405180830381600087803b15801561047557600080fd5b505af1158015610489573d6000803e3d6000fd5b50503360009081526002602090815260408083206001600160a01b038c1684529091529020600101548592506104c191508890610d16565b6104cb9190610faf565b3360008181526002602090815260408083206001600160a01b038c811680865291845293829020959095558051938452918b1690830152810191909152606081018690527fbe2d7a78cc1b5e2bfa97c379430571e5c9a49f6ae43f84624848e25157fb30cf9060800160405180910390a150505050505050565b6004546001600160a01b0316331461055f5761055f610f49565b6004805460405163a9059cbb60e01b81526001600160a01b03918216928101929092526024820183905283919082169063a9059cbb90604401610200565b6040516370a0823160e01b815230600482015260009082906001600160a01b038216906370a0823190602401602060405180830381865afa1580156105e6573d6000803e3d6000fd5b505050506040513d601f19601f8201168201806040525081019061060a9190610fc6565b9392505050565b6001600160a01b03808316600081815260016020818152604080842054958716845260028252808420948452939052918120909101549091906106538561059d565b61065d9190610fdf565b61060a9190610ffe565b60006106738383610c41565b3360009081526002602090815260408083206001600160a01b03881684529091529020600101549091508111156106f15760405162461bcd60e51b815260206004820152601160248201527f4e6f7420656e6f75676820746f6b656e7300000000000000000000000000000060448201526064015b60405180910390fd5b3360009081526002602090815260408083206001600160a01b038716845290915281205461072190859084610c6f565b6040805160208101909152600354815290915060009081906107439084610d42565b9092509050600082600381111561075c5761075c611020565b146107cf5760405162461bcd60e51b815260206004820152603860248201527f4578706f6e656e7469616c204661696c757265207768656e2063616c63756c6160448201527f74696e67207363686f6f6c20696e74657265737420637574000000000000000060648201526084016106e8565b6005546001600160a01b0316806369328dec896107ec858a610faf565b6040517fffffffff0000000000000000000000000000000000000000000000000000000060e085901b1681526001600160a01b03909216600483015260248201523360448201526064016020604051808303816000875af1158015610855573d6000803e3d6000fd5b505050506040513d601f19601f820116820180604052508101906108799190610fc6565b50811561093d57604051631a4ca37b60e21b81526001600160a01b038981166004830152602482018490523060448301528216906369328dec906064016020604051808303816000875af11580156108d5573d6000803e3d6000fd5b505050506040513d601f19601f820116820180604052508101906108f99190610fc6565b50604080516001600160a01b038a168152602081018490527f2f8f516867b899c659066a456c98b6aefa7432231dc82e9ee3a6df6a9e324cc8910160405180910390a15b3360009081526002602090815260408083206001600160a01b038b16845290915281206001018054918791906109738385610faf565b90915550503360009081526002602090815260408083206001600160a01b038c16845290915290206001810154905482916109ad91610fdf565b6109b79190610ffe565b3360009081526002602090815260408083206001600160a01b038d1684528252808320939093556001905290812080548892906109f5908490610faf565b9091555050604080513381526001600160a01b038b811660208301528a16818301526060810189905290517fb72b689a7f29d5ed02de80fe6d136f62098f880252b1bd96baed43fb94bc7da29181900360800190a1505050505050505050565b6040516323b872dd60e01b81523360048201523060248201526044810182905283906001600160a01b038216906323b872dd906064016020604051808303816000875af1158015610aaa573d6000803e3d6000fd5b505050506040513d601f19601f82011682018060405250810190610ace9190610f5f565b5060055460405163095ea7b360e01b81526001600160a01b0391821660048201819052602482018590529183169063095ea7b3906044016020604051808303816000875af1158015610b24573d6000803e3d6000fd5b505050506040513d601f19601f82011682018060405250810190610b489190610f5f565b5060405163e8eda9df60e01b81526001600160a01b038681166004830152602482018590523060448301526000606483015282169063e8eda9df90608401600060405180830381600087803b158015610ba057600080fd5b505af1158015610bb4573d6000803e3d6000fd5b50503360008181526002602090815260408083206001600160a01b038b811680865291845282852060018082018d9055908c90558452938290208a90558151948552928b1691840191909152820152606081018690527fbe2d7a78cc1b5e2bfa97c379430571e5c9a49f6ae43f84624848e25157fb30cf9250608001905060405180910390a15050505050565b6000610c4c8361059d565b6001600160a01b03841660009081526001602052604090205461065d9084610fdf565b3360009081526002602090815260408083206001600160a01b0387168452909152812060010154610ca25750600061060a565b6000610cae8584610d16565b3360009081526002602090815260408083206001600160a01b038a16845290915281206001015491925090610ce38587610fdf565b610ced9190610ffe565b905080821015610d025760009250505061060a565b610d0c8183610faf565b9695505050505050565b6001600160a01b038216600090815260016020526040812054610d388461059d565b61065d9084610fdf565b600080600080610d528686610d95565b90925090506000826003811115610d6b57610d6b611020565b14610d7c5750915060009050610d8e565b6000610d8782610e11565b9350935050505b9250929050565b6000610dad6040518060200160405280600081525090565b600080610dbe866000015186610e2f565b90925090506000826003811115610dd757610dd7611020565b14610df657506040805160208101909152600081529092509050610d8e565b60408051602081019091529081526000969095509350505050565b8051600090610e2990670de0b6b3a764000090610ffe565b92915050565b60008083610e4257506000905080610d8e565b6000610e4e8486610fdf565b905083610e5b8683610ffe565b14610e6e57600260009250925050610d8e565b600092509050610d8e565b80356001600160a01b0381168114610e9057600080fd5b919050565b60008060408385031215610ea857600080fd5b610eb183610e79565b946020939093013593505050565b600080600060608486031215610ed457600080fd5b610edd84610e79565b9250610eeb60208501610e79565b9150604084013590509250925092565b600060208284031215610f0d57600080fd5b61060a82610e79565b60008060408385031215610f2957600080fd5b610f3283610e79565b9150610f4060208401610e79565b90509250929050565b634e487b7160e01b600052600160045260246000fd5b600060208284031215610f7157600080fd5b8151801515811461060a57600080fd5b634e487b7160e01b600052601160045260246000fd5b60008219821115610faa57610faa610f81565b500190565b600082821015610fc157610fc1610f81565b500390565b600060208284031215610fd857600080fd5b5051919050565b6000816000190483118215151615610ff957610ff9610f81565b500290565b60008261101b57634e487b7160e01b600052601260045260246000fd5b500490565b634e487b7160e01b600052602160045260246000fdfea164736f6c634300080b000aa164736f6c634300080b000aa164736f6c634300080b000a",
  "linkReferences": {},
  "deployedLinkReferences": {}
}